:020000041000EA
:1000000000B5324B212058609868022188439860DF
:10001000D860186158612E4B002199600221596106
:100020000121F02299502B49196001219960352056
:1000300000F044F80222904214D00621196600F024
:1000400034F8196E01211966002018661A6600F04E
:100050002CF8196E196E196E052000F02FF8012189
:100060000842F9D1002199601B49196000215960AB
:100070001A491B48016001219960EB211966A021F2
:10008000196600F012F800219960164914480160C1
:100090000121996001BC002800D000471248134993
:1000A000086003C880F30888084703B5996A0420EC
:1000B0000142FBD001200142F8D103BD02B5186610
:1000C0001866FFF7F2FF186E186E02BD00000240BE
:1000D000000000180000070000035F00212200005C
:1000E000F4000018222000A00001001008ED00E03C
:1000F00000000000000000000000000074B24E7A12
:1001000000200420F7010010C3010010C5010010F9
:10011000C1010010C1010010C1010010C101001097
:10012000C1010010C1010010C1010010C701001081
:10013000C1010010C1010010C9010010CB01001065
:10014000CD010010CD010010CD010010CD01001037
:10015000CD010010CD010010CD010010CD01001027
:10016000CD010010CD010010CD010010CD01001017
:10017000CD010010CD010010CD010010CD01001007
:10018000CD010010CD010010CD010010CD010010F7
:10019000CD010010CD010010CD010010CD010010E7
:1001A000CD010010CD010010CD010010CD010010D7
:1001B000CD010010CD010010CD010010CD010010C7
:1001C00000BE00BE00BE00BE00BE00BEEFF3058054
:1001D000103800BEF2EB8871F4AF001018B00010B8
:1001E0003402001090A31AE700201F49086006C8D7
:1001F00081F3088810471D48006800282FD10DA4FE
:100200000ECC002902D000F012F8F9E71849194A7B
:10021000002000E001C19142FCD1174988471749ED
:1002200088471749884700BEFDE701C901C29A42C5
:10023000FBD3704718B00010C0000020C40C002091
:100240001CBC001000000420000004201CBC001096
:10025000001004200010042000000000704709482E
:1002600004F004FC0047000008ED00E0000000D0AE
:10027000C80C002040110020C537001005030010F5
:10028000813700105756000006005250ABB3605340
:1002900068A9001006005250861C030278A90010BD
:1002A000060052505422A29D84A90010050052500D
:1002B000DE65F4681CBC0010F8B5C04610B5064CED
:1002C0002378002B07D1054B002B02D0044800E017
:1002D00000BF0123237010BDC80D002000000000E6
:1002E00040910010044B10B5002B03D00349044883
:1002F00000E000BF10BDC04600000000CC0D002093
:100300004091001010B582B005F050FE154802F083
:10031000A1FB00F0FDFF01F059F901F0BBF9124B10
:100320001B88124A12681249096812480068124C68
:100330002478009401F0A6FA104801F001FB01F0C6
:1003400051FB002001F064FB04E000F065F90A2095
:1003500002F080FB084B1B78002BF6D100F0FCFA72
:10036000F5E7C046DC05000038110020140F00201E
:10037000100F00200C0F00203902002040910010C7
:1003800010B501F023F901F085F9044801F0D8FA1D
:1003900001F028FB002001F03BFB10BD489100104C
:1003A00010B501F013F901F0CBF9044801F0C8FAD7
:1003B00001F018FB002001F02BFB10BD5491001040
:1003C000884202DB904202DC70470800FCE7100024
:1003D000FAE7000010B5002907D001290AD0FA2257
:1003E00092010749FFF7ECFF10BDFA229201FFF7D7
:1003F000E7FFF9E7FA2292010021FFF7E1FFF3E7B7
:10040000C0E0FFFF10B5011E17DD312806DDFA231D
:10041000DB00984203DDFA21C90000E03221074BDE
:1004200005221A60064804F04DFB064B18601B6855
:10043000312B02DC034B32221A6010BD3C0200203B
:10044000A086010040020020F8B5CE46474680B5A0
:1004500080460C00150011002000FFF7BBFF0700CD
:10046000844207D143461B689946FE1A002E1DDDC3
:10047000002409E0214801F08BFAF3E70022002173
:10048000012000F0D9FF0134B44211DA002DF5D07B
:10049000012D05D001220021002000F0CDFFF2E760
:1004A00000220121002000F0C7FFECE7002E22DB34
:1004B00043461F60C0BCB946B046F8BD01200022CB
:1004C0000021404200F0B8FF01344B46DB1BA34241
:1004D000EEDD002DF2D0012D06D001225242002186
:1004E000002000F0A9FFEFE701210022494200208F
:1004F00000F0A2FFE8E70024E7E7C046649100109F
:10050000F0B5C64600B58CB007000E0090461C0042
:10051000184A282102A804F07DFA02A801F010FA76
:10052000154D002239002800FFF78EFF134F0122DE
:1005300031003800FFF788FF114E0222414630009B
:10054000FFF782FF0F4B1B883268396828680E4D11
:100550002D78009501F096F923000C4A282102A875
:1005600004F058FA02A801F0EBF90CB080BCB846D0
:10057000F0BDC046789100100C0F0020100F002035
:10058000140F00203811002039020020849100103F
:10059000F0B58FB005000C0014AB1E78002E25D0EE
:1005A000144A302102A804F035FA02A801F0C8F973
:1005B000114F002229003800FFF746FF0F4D01229E
:1005C00021002800FFF740FF0D4B1B880D4A1268E1
:1005D000296838680C4C2478009401F053F9002EF7
:1005E00006D00A4801F0ACF90FB0F0BD084AD8E7D0
:1005F0000848F7E7AC9100100C0F0020100F002006
:1006000038110020140F002039020020D49100106E
:1006100098910010C091001010B582B0002005F034
:10062000CBFC431C1DD02B384C2800D911E1800095
:100630008A4B1B589F468A4C21681439002220009F
:10064000FFF702FF874B1B88874A126887490968B2
:100650002068874C2478009401F014F9854801F053
:100660006FF902B010BD7E4C2168143100222000C9
:10067000FFF7EAFE7B4B1B887B4A12687B490968BF
:1006800020687B4C2478009401F0FCF87A4801F053
:1006900057F9E6E7754C2168143101222000FFF775
:1006A000D3FE704B1B88704A126821686C48006842
:1006B0006F4C2478009401F0E5F8704801F040F99F
:1006C000CFE76A4C2168143901222000FFF7BCFEF5
:1006D000644B1B88644A1268216861480068644C56
:1006E0002478009401F0CEF8654801F029F9B8E7C4
:1006F0005D4C2168143102222000FFF7A5FE594B02
:100700001B8822685949096855480068584C247864
:10071000009401F0B7F85B4801F012F9A1E7524CE0
:100720002168143902222000FFF78EFE4D4B1B88F2
:1007300022684E4909684A4800684D4C2478009464
:1007400001F0A0F8504801F0FBF88AE7454B1B8800
:10075000F52B16D80A33434A1380424C208800F008
:1007600061FD2388404A1268404909683C48006896
:100770003F4C2478009401F085F8444801F0E0F8FB
:100780006FE7384BFF221A80E7E7364B1B88092BAF
:1007900016D90A3B334A1380324C208800F042FDC0
:1007A0002388314A1268314909682D480068304C65
:1007B0002478009401F066F8344801F0C1F850E75D
:1007C000284B00221A80E7E7264C002323800020D4
:1007D00000F028FD2388244A12682449096820482B
:1007E0000068234C2478009401F04CF8284801F06C
:1007F000A7F836E71E4C0023237000F0E7FE00F058
:100800009FFF184B1B88184A12681849096814483A
:1008100000682478009401F035F81E4801F090F843
:1008200001F0E0F8002001F0F3F81AE7FFF7A8FD67
:100830000C4B1B880C4A12680C4909680848006870
:100840000B4C2478009401F01DF8134801F078F85F
:1008500007E7124801F074F803E7C04674920010ED
:100860000C0F002038110020140F0020100F002062
:1008700039020020E4910010F0910010FC9100106A
:100880000892001014920010209200102C92001078
:10089000409200104C920010489100106892001095
:1008A00070B5041C0D00084B1B78002B03D10749C1
:1008B00005F077F8041C280005F0B8F8211C05F0B5
:1008C00070F805F0D5F870BD3A0200203333CB4103
:1008D000F8B504000F0016001D001B4B1B680B60D1
:1008E0001A4B1B6813601A4B1B682B604378002B54
:1008F0000BD05021C068FFF7D3FF164B1B78002B9D
:1009000002D1114B1B68C0183860A378002B0BD0A4
:1009100050212069FFF7C4FF0E4B1B78002B02D13A
:100920000A4B1B68C0183060E378002B0BD060695D
:100930005021FFF7B5FF074B1B78002B02D1044B6A
:100940001B68C0182860F8BD0C0F0020100F002095
:10095000140F00203802002010B5A2B0002005F0CE
:100960002BFB431C2BD00D2825D00A2823D0082888
:1009700000D113E27F2800D110E2FF231840C74BBB
:100980001B5C68221900914300D121E2C44A12681D
:100990003E2A00DD1CE203210B40022B00D115E2B0
:1009A000C04B9854BE4C0132226005F08FFA20688B
:1009B00001F02EF803E0BA4B1B68002B01D122B0E6
:1009C00010BDB8480022C25407A900F072FB0028ED
:1009D00008D007AB1B780F2B00D9DBE19B00B24A94
:1009E000D3589F46AF4BB14A402112A804F012F8E9
:1009F00012A800F0CDFFAA4C0023236000F0F2FF04
:100A0000206801F005F8DAE7A94C01232370FFF70D
:100A1000B7FCA84B1B88A84A1268A8490968A848CF
:100A200000682478009400F02DFFA64800F088FFAD
:100A30009B4C0023236000F0D5FF206800F0E8FF06
:100A4000BDE707AB1B7A002B1ED0119805F010F8FC
:100A5000002803DB962802DD962000E0002080B20B
:100A6000944C208000F0DEFB2388934A126893495F
:100A70000968934800688E4C2478009400F002FFC7
:100A8000914800F05DFFD3E7904800F081FFCFE789
:100A9000884C00232380002000F0C4FB2388864A72
:100AA00012688649096886480068814C2478009459
:100AB00000F0E8FE864800F043FFB9E7854B0122CD
:100AC0001A70854800F03CFFB2E7824B00221A7092
:100AD000824800F035FFABE7794B1868804B18600F
:100AE000764B19687F4B1960734B1A687E4B1A60FE
:100AF000704B1B886E4C2478009400F0C3FE7B483A
:100B000000F01EFF94E7784B1A68764B1968744B17
:100B10001868774BFFF7F4FC664B1B88664A12682F
:100B20006649096866480068614C2478009400F0C2
:100B3000A9FE704800F004FF7AE707ABDB79002BD1
:100B400010D0109804F094FF041E09DB6A4800F0EE
:100B5000F7FE200001F07EFF684800F0F1FE67E735
:100B60000024F3E7664800F013FF61E7654B0022BD
:100B70001A70654800F0E4FE5AE7624B01221A70D1
:100B8000624800F0DDFE53E712AB06AA05A907A8EC
:100B9000FFF79EFE5E4B129A06990598FFF7B0FC90
:100BA000444B1B88444A1268444909684448006819
:100BB0003F4C2478009400F065FE564800F0C0FEDB
:100BC00036E707AC12AB06AA05A92000FFF780FEA6
:100BD0002379002B16D1504B129A06990598FFF7EE
:100BE0008FFC344B1B88344A1268344909683448F6
:100BF00000682F4C2478009400F044FE474800F031
:100C00009FFE15E70D9804F033FFFFF7FBFBE2E7CB
:100C100007AC12AB06AA05A92000FFF759FE6379BD
:100C2000002B02D0A379002B03D13D4800F0B0FE89
:100C3000FEE60E9B03935021181CFFF731FE0400C3
:100C40000F985021FFF72CFE030001220092220092
:100C500006990598FFF79CFC164B1B88164A1268EC
:100C60001649096816480068114C2478009400F071
:100C700009FE2C4800F064FEDAE607AC12AB06AAC7
:100C800005A92000FFF724FE6379002B02D0A37989
:100C9000002B4BD1244800F07BFEC9E68DAA001042
:100CA000740E0020340E002030950010A893001020
:100CB0003902002038110020140F0020100F0020EE
:100CC0000C0F0020BC930010D4930010E093001090
:100CD0004092001038020020F4930010109400108D
:100CE000F00E0020F40E0020F80E00202C940010CE
:100CF000409400104494001054940010609400102C
:100D0000709400103A020020849400109494001013
:100D1000A8940010AC940010C0940010C49400106B
:100D2000DC940010D4910010F09400100E9B0393FB
:100D30005021181CFFF7B4FD04000F985021FFF755
:100D4000AFFD030000220092220006990598FFF7EC
:100D50001FFC284B1B88284A126828490968284824
:100D60000068284C2478009400F08CFD264800F0A0
:100D7000E7FD5DE6FFF714FB1E4B1B881E4A126859
:100D80001E4909681E4800681E4C2478009400F033
:100D900079FD4DE61D4800F0FBFD49E61C4B1B6844
:100DA000002B00DC0BE6013B194A136000F01AFE31
:100DB000002404E0174B185D05F088F80134144B4B
:100DC0001868A042F6DC00F023FEF8E52038E7E5DD
:100DD0000F4B1B683E2B00DCF1E50D4B00221A6027
:100DE00000F000FE002000F013FE0B4800F0D0FDE4
:100DF000E5E5C04638110020140F0020100F002038
:100E00000C0F002039020020C09100100495001042
:100E1000740E0020340E00201C9500100023037077
:100E200043708370C370037143718371C371037224
:100E30000023C360036143618361C3610362436252
:100E400083627047F0B5002401E08B550134531ED6
:100E5000A3420BDD2600035D002B07D0054DEF5CA0
:100E600003253D40022DF0D1203BEEE70919002378
:100E70000B70F0BD8DAA001030B500E00130037892
:100E8000002B05D00C4DEB5C1B07F7D4002400E0D1
:100E900000240378002B0AD0074DED5C2D0706D403
:100EA000551EA54203DD01300B550134F1E7091948
:100EB00000230B7030BDC0468DAA001000B585B070
:100EC00010226946FFF7D8FF5C49684605F056FDD9
:100ED000002800D184E05A49684605F04FFD0028FB
:100EE00000D180E05749684605F048FD002800D150
:100EF0007BE05549684605F041FD002800D176E0C9
:100F00005249684605F03AFD002800D171E0504989
:100F1000684605F033FD002800D16CE04D49684675
:100F200005F02CFD002868D04B49684605F026FDE9
:100F3000002864D04949684605F020FD002860D0AB
:100F40004749684605F01AFD00285CD045496846C7
:100F500005F014FD002858D04349684605F00EFD01
:100F6000002854D04149684605F008FD002850D0BB
:100F70003F49684605F002FD00284CD03D496846CF
:100F800005F0FCFC002848D03B49684605F0F6FC1B
:100F9000002844D03949684605F0F0FC002840D0CC
:100FA0003749684605F0EAFC00283CD035496846D8
:100FB00005F0E4FC002838D03349684605F0DEFC33
:100FC000002834D03149684605F0D8FC002830D0DC
:100FD0002F49684605F0D2FC00282CD0002000E004
:100FE0000F2005B000BD0F20FBE70920F9E708201E
:100FF000F7E70120F5E70120F3E70220F1E70220FF
:10100000EFE70320EDE70320EBE70420E9E7042006
:10101000E7E70520E5E70520E3E70620E1E707200D
:10102000DFE70A20DDE70B20DBE70C20D9E70C2007
:10103000D7E70D20D5E70E20D3E7C0467095001006
:10104000749500107C95001040940010A894001036
:1010500084950010C0940010889500108C950010A5
:101060009095001094950010989500109C95001094
:10107000A0950010A4950010A8950010AC95001044
:10108000B0950010B4950010B8950010BC950010F4
:10109000C095001010B5140005F010FC002806D013
:1010A0000130002106F098FC2060012010BD0020D6
:1010B000FCE730B591B005000C000800FFF7AEFE6C
:1010C000402269462800FFF7BDFE6846FFF7F6FE9E
:1010D0002070002802D1002011B030BD22000C3257
:1010E00058216846FFF7D6FF607022001032592160
:1010F0006846FFF7CFFFA070220014325A216846DD
:10110000FFF7C8FFE0702200183246216846FFF75B
:10111000C1FF207122001C3249216846FFF7BAFF47
:101120006071220020324A216846FFF7B3FFA071A8
:101130002200243250216846FFF7ACFFE071220004
:10114000283253216846FFF7A5FF20720120C3E72C
:1011500010B582B001AB00221A705A709A70002349
:101160000BE00A002A495158012214008C40D0217A
:1011700009068C6101A9CA540133022B13DC9900C2
:101180000C58244A8A586243002AEADBF4DD9A00AC
:101190001F495158012214008C40D02109064C618E
:1011A00001A9CA54E8E70A20002101F027FC002326
:1011B00000E00133022B0CDC01AAD25C002AF8D03B
:1011C0009A001549515801228A40D02109064A61E6
:1011D000EFE7124B1868C11701F010FC002300E084
:1011E0000133022B0CDC01AAD25C002AF8D09A0051
:1011F0000949515801228A40D02109068A61EFE746
:10120000074B1868C11701F0F9FB02B010BDC046CA
:10121000DC950010F4950010E89500103C020020C9
:1012200040020020FF2800D9FF200004034B1B6868
:101230005840000C0004024B186070470C00054039
:101240000C10054010B5002805D001281CD10A2239
:101250000830082402E0042203200224052913D8C0
:1012600089002A4B5B589F4601231900A1400C00BE
:10127000D02109068C611C0084408C6193408B61F5
:101280000A20002101F0BAFB10BD01231900A14082
:101290000C00D02109064C611C0084408C619340F5
:1012A0008B61EDE701231900A1400C00D021090654
:1012B0008C611C0084404C6193408B61E0E701230A
:1012C0001900A1400C00D02109064C611C0084408B
:1012D0004C6193408B61D3E701231900A1400C00BE
:1012E000D02109068C611C0084408C6193404B61C5
:1012F000C6E701231900A1400C00D02109064C616A
:101300001C0084408C6193404B61B9E7C495001088
:10131000F8B5162000F0BCFBD0231B068022D203B8
:101320005A629A61002615E0B7003D4BFD5828002F
:1013300000F0AEFB01242300AB40D0252D066B62EC
:10134000AB61384BFF58380000F0A2FBBC406C6228
:10135000AC610136022EE7DD022000F099FBD024BB
:10136000240604236362A361032000F091FB082399
:101370006362A361042000F08BFB10236362A3610E
:10138000082000F085FB80235B006362A3610920D5
:1013900000F07EFB80239B006362A3610A2000F0C3
:1013A00077FB8023DB006362A361072000F070FB02
:1013B0008023A36200220121072000F04FFB0D20B3
:1013C00000F066FB80239B01A362002201210D2017
:1013D00000F044FB102000F05BFB80235B02A36263
:1013E00000220121102000F039FB0421112000F01F
:1013F0001DFB0D4AFF2313610C4B1B681B0C1B04C8
:101400000B490B601268012393430A4A13600021C1
:101410000020FFF717FF00210120FFF713FFF8BDA1
:10142000E8950010DC950010000005400C00054018
:101430000C1005400010054000B585B001900291E8
:10144000039201A8FFF784FE05B000BDF0B5DE46AB
:1014500057464E464546E0B583B007000E001500DE
:1014600000930CAB04CB01921B88272B0CD80A22CB
:101470009B181E225149524804F08CFD0024BB46A3
:10148000B1462600AA4623E00022F1E75B469D19FB
:10149000ADB24B469CB21A04120C484B9846494FC9
:1014A0002B004146380004F075FD2D2004F00EFDA0
:1014B0002200009B9C46624492B2013A92B22B00F9
:1014C0004146380004F066FD2D2004F0FFFC013693
:1014D0005645DBDB4E4655460124D946B24626002A
:1014E000AB4620E04B469CB253469D19ADB24B46ED
:1014F0001B041B0C314A9046324F2A0041463800EB
:1015000004F048FD7C2004F0E1FC23005B449BB226
:10151000013B9BB22A004146380004F03BFD7C2091
:1015200004F0D4FC0136009B013BB342DADC984660
:101530004F4601231D00D1465E4610E03B199BB289
:101540004A46521992B21D491E4804F023FD20203C
:1015500004F0BCFC0134731EA342EFDC0135A84546
:1015600001DD0124F7E735004E460198002816D02A
:101570000378002B13D005F045FA2D1AEB0F5B19F9
:101580005B10012D18DDFB189BB23204120C0B49C5
:101590000C4804F0FFFC01990B4804F0FBFC2823E5
:1015A00025220649064804F0F5FC03B0F0BCBB4612
:1015B000B246A946A046F0BD0123E4E77C9900109D
:1015C000009600100C960010B893001070B582B011
:1015D000274C282325222100264804F0DBFC264A3C
:1015E0002100264804F0D6FC24230193244B0093C9
:1015F0001023262201210120FFF728FF1E26019635
:10160000204D00950E23242202210220FFF71EFF09
:10161000202301931C4B0093102315220121282025
:10162000FFF714FF019600950E23132202212920B3
:10163000FFF70CFF21230193144B009304233C225A
:1016400012210120FFF702FF0196009502233A22A2
:1016500013210220FFF7FAFE0123182221000C4873
:1016600004F098FC3E2004F031FC02B070BDC0468E
:101670007C990010009600107899001018960010C0
:1016800020960010B4A40010289600103496001084
:101690000C96001070B5214D214C03230222290025
:1016A000200004F077FC1F4804F074FC032303229D
:1016B0002900200004F06EFC1B4804F06BFC03239F
:1016C00004222900200004F065FC184804F062FCA4
:1016D000032305222900200004F05CFC144804F0D8
:1016E00059FC032306222900200004F053FC114872
:1016F00004F050FC032307222900200004F04AFCD8
:101700000D4804F047FC032308222900200004F0C0
:1017100041FC0A4804F03EFC70BDC0467C990010B4
:101720000C9600103C960010509600106496001025
:101730007896001094960010AC960010C496001095
:1017400070B5404D404C032302222900200004F0D4
:1017500021FC3E4804F01EFC032303222900200044
:1017600004F018FC3A4804F015FC03230422290075
:10177000200004F00FFC374804F00CFC0323052282
:101780002900200004F006FC334804F003FC032386
:1017900006222900200004F0FDFB304804F0FAFB8B
:1017A000032307222900200004F0F4FB2C4804F056
:1017B000F1FB032308222900200004F0EBFB294859
:1017C00004F0E8FB032309222900200004F0E2FBD7
:1017D000254804F0DFFB03230A222900200004F03F
:1017E000D9FB224804F0D6FB03230B22290020005A
:1017F00004F0D0FB1E4804F0CDFB03230C2229008B
:10180000200004F0C7FB1B4804F0C4FB03230D2297
:101810002900200004F0BEFB174804F0BBFB0323A3
:101820000E222900200004F0B5FB144804F0B2FB9E
:1018300003230F222900200004F0ACFB104804F021
:10184000A9FB70BD7C9900100C960010DC9600106E
:1018500008970010349700105897001084970010D4
:10186000B0970010E49700101498001034980010FE
:10187000589800107C980010A8980010C498001088
:10188000F0980010F0B5D6464F464646C0B58146A2
:10189000884617001E0008AB1B78002B3AD01F4B60
:1018A0009A461F4D1F4C2A2302222900200004F0D3
:1018B00071FB51461C4804F06DFB2A2304222900C9
:1018C000200004F067FB4946184804F063FB2A2314
:1018D00005222900200004F05DFB4146144804F075
:1018E00059FB2A2306222900200004F053FB39006B
:1018F000104804F04FFB2A2308222900200004F09E
:1019000049FB31000C4804F045FBE0BCBA46B14647
:10191000A846F0BD094B9A46C3E7C0462899001077
:101920007C9900100C960010309900103C99001022
:10193000449900104C9900105499001020990010FF
:1019400070B5050001240DE02200123292B202238C
:101950000B490C4804F01EFB0B4A3A210B4804F0DB
:1019600019FB0134022CEFDD03231322044905483F
:1019700004F010FB2A003821044804F00BFB70BD72
:101980007C9900100C960010B4A40010609900100F
:1019900070B5050001240DE02200123292B202233C
:1019A0000B490C4804F0F6FA0B4A3A210B4804F0B4
:1019B000F1FA0134022CEFDD032313220449054818
:1019C00004F0E8FA2A003121054804F0E3FA70BD7A
:1019D0007C9900100C960010B4A4001060990010BF
:1019E0006899001010B5074C012318222100064801
:1019F00004F0D0FA2100054804F0CCFA3E2004F0AF
:101A000065FA10BD7C9900100C96001074990010B6
:101A100010B5023083B218220249034804F0BAFA22
:101A200010BDC0467C9900100C96001010B58300C4
:101A3000084A944663441C6840226240C024144013
:101A40008022520113431C60C000034B9C4660443B
:101A5000416010BD04C001400040014080000B4BBC
:101A60009C46604400290DD00823002A0CD0042293
:101A70001343026853400C2213408022520110434A
:101A8000036070470023F0E70022F1E704C0014043
:101A900010B501238340D022120693629361052181
:101AA000FFF7C4FF10BD0000034B1B680220184065
:101AB000431E9841C0B2704700C00640EFF310804B
:101AC00072B6034B1B68002BFBD0BFF35F8F7047D0
:101AD0002C0100D0BFF35F8F024B00221A6080F30D
:101AE000108870472C0100D0F8B506000C001500D6
:101AF000FFF7E4FFE308F718F15C07222240012317
:101B000093400B4205D1DBB20B433B70FFF7E2FF82
:101B1000F8BD2100280001F0D1FE0000002307E0FD
:101B2000054A9A189200BFF35F8F002111600133BC
:101B30001F2BF5D97047C04640000034054A107885
:101B4000431CDBB21370172B02D9130010221A703A
:101B50007047C04644020020074B9B68103080004D
:101B60001950BFF35F8FBFF35F8F044B00211960E3
:101B700082F310887047C04600ED00E0240100D0D9
:101B800010B5091A081F0A4B9C466144094A914244
:101B900008D8C30706D440104005400D064B184333
:101BA00080B210BD054B064AA321064801F0ECFDAA
:101BB000FC070000FE0F000000E0FFFF809900100E
:101BC000F09B0010B099001010B5091A04394C08A8
:101BD000090B08D14905490D064A11430180064BFE
:101BE0002343438010BD054B054AAB21054801F056
:101BF000CBFDC04600F0FFFF00F8FFFF0C9A00107D
:101C0000C49B0010B099001001238340034A106860
:101C10001840431E9841C0B27047C04600E100E042
:101C2000002904D0034B1860034B18607047034B26
:101C30001860FBE780E200E000E100E080E100E006
:101C400010B5012383401800FFF7EAFF10BD000024
:101C5000024B9B6810308000C058704700ED00E0D8
:101C600070B504000D00EFF3108672B60C4B1B68C4
:101C7000002BFBD0BFF35F8F2000FFF7E9FF094B7C
:101C8000984201D0A84205D1320029002000FFF778
:101C900063FF70BD044B054A8621054801F074FDC1
:101CA000240100D0CD0100101C9A00100C9C0010E3
:101CB000B0990010F0B5CE46474680B583B0060017
:101CC0000D00EFF3108872B6564B1B68002BFBD04B
:101CD000BFF35F8F544B9A6834001034A300D75879
:101CE000524B9F4207D0AF4200D198E00197504B32
:101CF000FB1A2F2B09D9424639003000FFF72CFF81
:101D000003B0C0BCB946B046F0BD3000FFF77CFF61
:101D1000814600213000FFF793FFBFF35F8FEFF3A1
:101D20000581002901D08C4211D10123019C9C43E3
:101D30000022A368AB4212D00622A256002A0DDB75
:101D400053009B189B002200394CE418F1E7362120
:101D5000384B394AFF31394801F016FD2200AB42B9
:101D600056D106256557002D38DB6B005B199A00AC
:101D70002F4B9B189A68A260DA79E27106229A5674
:101D8000A2719B795BB2002B0FDA2D48A0806B000B
:101D90005B199B00264AD3182A4A1178997115704D
:101DA00049463000FFF74CFFA5E7201D6B005B198B
:101DB0009B001F4A9B181A1D9B88D90A1C2907D112
:101DC0005B055B15023359005118FFF7D9FEDDE7BB
:101DD0001D4B1E4AB121194801F0D6FC002912D131
:101DE000002A0ED0FF239371194B9380154A137864
:101DF000A371184B0E49641A644163431B0D1370A1
:101E0000CEE70A4FF2E7201D1349FFF7DDFEC7E7D3
:101E10006A21124B084AFF31084801F0B5FC034F14
:101E200069E7C046240100D000ED00E0CD010010BC
:101E300048020020309B0010DC9B0010B09900107D
:101E400001BD00003B110020189B0010FC9B0010FE
:101E500001BDFFFFAAAA000082020020649B0010BF
:101E600070B5012101432E4BCB1A2F2B28D8EFF34D
:101E70000583002B2BD0EFF3108C72B6294A126821
:101E8000002AFBD0BFF35F8F274A0400244D641B58
:101E900064416243120D54B2244A92689B00D258A6
:101EA0008A421BD00022032A32D853009B189B0081
:101EB0001B49CB189B795BB2A3421FD00132F2E7DA
:101EC000C7211B4B1B4A49001B4801F05DFC9221B6
:101ED0001A4B184AFF31184801F056FC134A926811
:101EE0001749D150174B1A7882711C70BFF35F8F5E
:101EF0000C4B00221A608CF3108870BD0D0053004B
:101F0000991889006918FF268E710F4A8A80E9E7BF
:101F1000D1210E4B074A4900074801F035FCC04665
:101F200048020020240100D0AAAA000000ED00E031
:101F30006C9B0010A89B0010B0990010949B00109F
:101F4000CD0100103B11002001BDFFFFA09B001040
:101F50000022044B02E0044902C30132072AFAD9E5
:101F60007047C04600E400E080808080024B9C46C1
:101F700061448900016070474000003410B50400DE
:101F8000FFF7DCFD01002000FFF7F0FFFF232371C6
:101F9000BFF35F8F10BD10B50400FFF7CFFD010048
:101FA0002000FFF7E3FFFF23237100236371BFF3DA
:101FB0005F8F10BD70B505000C00080000F0FEFE3C
:101FC0000949200000F03EFEFFF7B8FD074B9C4694
:101FD0006044800068602C75D0231B061B786B75ED
:101FE000A400034BE55070BDF922001040000034FE
:101FF000FC0E00200A4B1A68EFF3108172B61368CA
:10200000002BFCD0BFF35F8F054B1B68BFF35F8FC6
:1020100000221A6081F3108840BF00200021704721
:102020001C11002010B5002922D003681B7B9942A7
:102030001ED8174B9C466144090183689C46614445
:102040000C684968002A19D003681B7B9A4215D88E
:1020500083680F488446624412019A1810685368D6
:10206000020001208B4201D80ED00020C0B210BD6A
:10207000084B094A3C21094801F086FB054B064AFA
:102080003C21064801F080FBA242EFD8EDE7C046B4
:10209000FFFFFF0FDC9D001058A00010889D00106E
:1020A00010B500291ED0037B99421BD84B005B184A
:1020B000033B0468A4466344002919D0002A1DD0BC
:1020C000914221D0002A25D0047BA24222D8046864
:1020D00050008018033820188170197800291FD10A
:1020E0001A7010BD104B114A6821114801F04CFBC9
:1020F000104B114A6F310E4801F046FB0F4B0E4A50
:1021000070210B4801F040FB0D4B0B4A7121084830
:1021100001F03AFB044B054A6821054801F034FB05
:1021200041701A70DDE7C046009E0010C4A0001088
:102130001C9E0010849E0010A0A00010909E001015
:102140009C9E001070B506000D001400002914D0EC
:10215000002A14D0806873689847002806D02200AF
:1021600029003000FFF79CFF280007E02A0021002B
:102170003000FFF795FF200000E0100070BD080060
:10218000FCE70000F0B583B00500009201930AABB4
:102190001C780BAB1F78002C26D003685A7B944226
:1021A00007D10123002B19D1002C3BD1200003B013
:1021B000F0BD002C0CD01A7B944209D81A68630039
:1021C0001B19033BD3189B78002BEBD00123E9E7C5
:1021D0003E4B3F4A68213F4801F0D6FA3E4B3F4A0A
:1021E00067213F4801F0D0FA03689C7B002CDBD0CC
:1021F00012D01A7B94420FD862001219033A196860
:102200008C46624451789973002900D1D973002318
:10221000937053701370C7E72C4B2D4A68212D48DB
:1022200001F0B2FA002C3AD02B681B7B9C4236D8C6
:102230002C4BE3181B01AA6894466344009A1A6069
:10224000019A5A60089A9A60099ADA602E68002CFE
:102250002BD030D0337B9C422DD863001B19033B1D
:1022600032689446634400229A705A701A70717BE7
:1022700022003000FFF766FF7073844200D095E7BC
:10228000287D009A019B00F025FD061E01D0002F3D
:1022900017D00C9B002B00D188E71E7086E7124BED
:1022A000124A3C210E4801F06FFA114B114AA52148
:1022B000084801F069FA054B054A6821054801F014
:1022C00063FA2868210000F03DFFE2E7009E00105D
:1022D000C4A000101C9E0010B49E0010D0A00010DE
:1022E000889D0010FFFFFF0FDC9D001058A000101C
:1022F000849D0010B4A00010F0B5DE4657464E464F
:102300004546E0B58BB00990002308938200B54B99
:10231000D658370052E0B44BB44A3F21B44801F0DC
:1023200033FAB44BB44A3C21B44801F02DFA0029E9
:1023300001D1002869D10021404600F0F9FEA042F9
:1023400019D12A686B6806920793AB689846EB68C8
:102350009A464346002B14D0002C18D03B681B7BB8
:102360009C4214D8631EFA68D35C08931B0218437E
:102370003861002015E0A24BA24A8E219F4801F04F
:1023800003FAA14B9F4A92219C4801F0FDF9994B19
:102390009E4A4121994801F0F7F900239A46984650
:1023A00000207B68BFF35F8F00221A6086F31088DD
:1023B0004346002B32D1002800D10CE100F0FEFB97
:1023C00002000B1EA7DB0020002106900791786811
:1023D000EFF3108672B601680029FCD0BFF35F8F5F
:1023E000396888464C7B002CD7D09AD0097B8C4228
:1023F00097D8874965182D01B9688C4665442868C7
:102400006968801A9941002991DD2A686B680998EA
:1024100000F060FC00239A469846C2E7089B1B0226
:102420002343994651461800C04705000E007A68BC
:10243000EFF3108B72B6136859424B41D9B2002B9F
:10244000F9D1BFF35F8F002E1EDB002E46DD3B6906
:10245000002B47D04B456DD100F0B0FB02000B1EA6
:102460006EDB52197341002B70DB002B72DB0021F5
:10247000049101310391029451460191414600912A
:102480003800FFF77FFE4CE03B69002BDDD04B4569
:1024900014D1069A079B521BB341002B14DB002B6F
:1024A00016DB002104910131039102945146019100
:1024B000414600913800FFF765FE32E0554B514A26
:1024C000A1214E4801F060F901225242524BE6E749
:1024D000454B464A3F21464801F056F9002E01D1AE
:1024E000002DB4D13B68002C50D05A7B944237D198
:1024F000012100294AD1DA7B002A4DD19A7B002A9A
:1025000003D1DA7B002A5AD19C73DC73002C5CD097
:102510003B681B7B9C4258D8FA68013C135D013331
:10252000135500233B617A68BFF35F8F13608BF311
:10253000108843E7374B334AA421304801F024F98F
:10254000294B2A4A3F212A4801F01EF90122524212
:10255000314B8AE7244B254A3F21254801F014F9E5
:10256000002C0DD01A7B94420AD862001219033A4B
:102570001868844662449278002ABAD00121B8E7EC
:10258000264B274A6821274801F0FEF8264B274AA8
:10259000F621244801F0F8F8002A0AD0197B8A4273
:1025A00007D851008A18033A19688C46624454705F
:1025B000A4E71A4B1A4A68211A4801F0E5F81C4BA7
:1025C0001A4AFB21174801F0DFF80A4B0F4A412154
:1025D0000A4801F0D9F80BB0F0BCBB46B246A94698
:1025E000A046F0BDFC0E0020989C001024A0001016
:1025F000B49C0010DC9D001058A00010889D0010B5
:10260000DC9E00103CA00010F49E00107CA0001086
:10261000FFFFFF0F009F0010FFFFFF7F009E0010D5
:10262000C4A000101C9E00103C9F001090A0001041
:10263000609F001010B50C4B5B68002B04D00A2182
:102640000A48FFF793FC10BD074C2300084A1021ED
:10265000206800F07DFC032000F0A4FA0321200094
:10266000FFF7A8FCEBE7C046900200201C110020F9
:102670002520001010B5064B5B68002B01D00448E4
:1026800010BD044B044A5E21044801F07DF8C046A9
:1026900090020020749F001064A00010889D00101C
:1026A000F0B5DE4657464E464546E0B58BB080460F
:1026B00016001F00149B9A46159B994616AB1B7873
:1026C0009B461F2302AA9446634400221A702BE003
:1026D000002809D042461268127B904204D8421E5C
:1026E0004146C9688A5C41E0404B414A412141482A
:1026F00001F04AF807984CE0361BAF41002F07DB8A
:10270000002F11DA3C4B3D4A3F213D4801F03CF897
:10271000012676423B4FF3E7374B384A3F21384892
:1027200001F032F8002F4FDB43465A68EFF3108474
:1027300072B6136859424B41D9B20791002BF8D1B8
:10274000BFF35F8F1F3302AA9446634404930023B0
:10275000039302934B4601935346009332003B0090
:102760004046FFF70FFD031EB2D102004146496803
:10277000BFF35F8F00250D6084F31088002B29D0F4
:102780001F2302A98C4663441B78002BB2D112028E
:102790001043002B20D05B46002B1DD04946D0476C
:1027A00004000D0003000B431DD00029A4DB00F042
:1027B00005FA06000F1EAFDB36196F41002FB1DAA4
:1027C000012676420F4FADE70B4B0C4A3F210C48D8
:1027D00000F0DAFF012040420BB0F0BCBB46B2462D
:1027E000A946A046F0BD0798F6E7C046DC9D00105C
:1027F0007CA00010889D0010989C001024A0001060
:10280000B49C0010FFFFFF7FF8B50400002900D141
:1028100062E04268EFF3108572B613685842434194
:10282000D8B2002BF9D1BFF35F8FCBB22268567BB1
:10283000B3421BD10120002848D0206988422BD008
:10284000090AC9B2002B2ED02068007B83422AD807
:10285000581EE668305C88422BD000206368BFF3C6
:102860005F8F00221A6085F31088F8BD002B0DD011
:10287000167BB3420AD85E00F618033E1768BC46C2
:102880006644B678002ED6D00120D4E7134B144A04
:102890006821144800F078FF2C21134B134AFF31B4
:1028A000134800F071FF134B134A4121104800F008
:1028B0006BFF1900100000F045FC0028CED19921D3
:1028C0000E4B0A4A49000A4800F05EFF23698B421A
:1028D000C4D100232361C1E70020C6E7009E001099
:1028E000C4A000101C9E0010989F00100CA00010A7
:1028F000889D0010DC9D00107CA0001078980010CE
:10290000F0B587B006000F00EFF30583002B1FD151
:1029100006246442E517A4197D418D4202D803D1F3
:10292000844201D900240025002D14DB0494059570
:1029300000F044F902000B1E13DBA41A9D41002D88
:1029400017DC14D03000390000F044F907B0F0BDB6
:10295000234800F0B3FF234B234A3F21234800F0D4
:1029600013FF204B204A3F21204800F00DFF002C90
:10297000E8D0FFF77FFE0023029301931C4B0093E6
:10298000049A059BFFF78CFE002818DADAE700238B
:1029900000E00023002BD5D1164B1A68EFF310810D
:1029A00072B61368002BFCD0BFF35F8F114B1B680E
:1029B000BFF35F8F00221A6081F3108820BF049953
:1029C000059A0D4B5B6A9A42E3D80B48806A8842AD
:1029D00003D29A42DBD00123DCE70123DAE7C046C9
:1029E000BC9F0010989C001024A00010B49C001004
:1029F000F51F00101C1100200040054070B50400B8
:102A00000D0000F0DBF802000B1E0ADB200029009D
:102A10008018594100290ADB00290CDBFFF770FF01
:102A200070BD084B084A3F21084800F0ADFE012068
:102A300040420749F0E7034B034A3F21034800F0B7
:102A4000A3FEC046989C001024A00010B49C001067
:102A5000FFFFFF7F10B5FA2292000023002102F051
:102A600063FFFFF7CBFF10BD70B584B005000C000D
:102A7000EFF30583002B1ED1FFF7FCFD002302932B
:102A80000193224B00932A002300FFF709FE061E44
:102A900023DD20BFFFF7EEFD3100FFF7B5FE1C4B35
:102AA0005B6A9C422DD81A4A926AAA422CD29C4256
:102AB00025D0012026E0164B5B6A994209D8144ABA
:102AC000926A824207D2994201D001201AE0002086
:102AD00018E0002016E0012014E00D4B5B6A9C42D8
:102AE00009D80B4A926AAA4207D29C4201D001201F
:102AF00008E0002006E0002004E0012002E00020C1
:102B000000E0002004B070BD0120FBE7F51F0010BD
:102B10000040054070B5EFF305801038EFF3108CDE
:102B200072B61A4B1B68002BFBD0BFF35F8F0122DC
:102B30001300834016494B6316490B601649097808
:102B40000C00C440224214D0114A546A8200134D32
:102B50005259944206D38200114C125999430E4B9C
:102B6000197007E00A4A031D9B00995899500022EA
:102B700000E00022BFF35F8F044B002119608CF34B
:102B80001088002A00D0904770BDC046280100D0B0
:102B9000004005403C7005403C1100202011002001
:102BA0001C0E002010B50100024A0348FEF79CFFEE
:102BB00010BDC046E8A000103A110020044B5B6A2B
:102BC000034A906A1900536A9942F9D17047C04686
:102BD00000400540084B5B6A01E0074B5B6A8B4293
:102BE000FBD301E0044B5B6A8B4203D1024B9B6A2F
:102BF0008342F7D37047C0460040054070B50400DB
:102C00000D00FFF7DBFF02000B00200029008018F9
:102C100059418B4202D804D1824202D9012040425C
:102C2000C117002902DBFFF7D5FF70BD024B034A35
:102C30003F21034800F0A8FD989C0010ACA10010B3
:102C4000B49C001070B504000D00EFF3108672B64E
:102C50001B4B1B68002BFBD0BFF35F8F002D1CD0DC
:102C60002000FEF7F5FF174B83420BD01900200020
:102C7000FEF7F6FF01212000FEF7E2FF0123A3404B
:102C8000114A1360A400114BE550BFF35F8F0C4B4A
:102C900000221A6086F3108870BDA2000B4B002141
:102CA000D1500122A2400A490B7893430B70054989
:102CB0002000FEF7FFFF00212000FEF7C1FFE4E740
:102CC000280100D0152B0010386005401C0E002094
:102CD0003C110020F0B5DE4600B584B004001500BC
:102CE00001921E000293FFF769FF03958E4202D8FE
:102CF0004ED185424CD9EFF3108B72B6274B1B682F
:102D0000002BFBD0BFF35F8F254A17780125A54024
:102D1000EBB23B431370234B5D63221D920001997C
:102D2000D150A2002049029850501B6A2B4212D168
:102D30001C4B1B6C2B4208D00020BFF35F8F174B3E
:102D400000221A608BF3108823E0184B184AC52123
:102D5000184800F019FDFFF731FF8E4214D802D158
:102D6000039B834210D80E4B1B78BB420ED00D4BF9
:102D70001D625D631F2004400123A3400E4A1360BF
:102D8000074B1F701E38D8E70020D6E70120D4E794
:102D9000012004B080BCBB46F0BDC046280100D075
:102DA0003C11002000400540201100200CA1001023
:102DB00090A1001030A1001080E200E0EFF3108C31
:102DC00072B60B4B1B68002BFBD0BFF35F8F012348
:102DD0008340084A136208490A789A430A70BFF38D
:102DE0005F8F034B00221A608CF310887047C04637
:102DF000280100D0004005403C11002010B50029FA
:102E00001ED0037B99421BD84B005B18033B046820
:102E1000A4466344002919D0002A1DD0914221D034
:102E2000002A25D0047BA24222D8046850008018D2
:102E3000033820188170197800291FD11A7010BD2D
:102E4000104B114A6821114800F09EFC104B114AAA
:102E50006F310E4800F098FC0F4B0E4A70210B4862
:102E600000F092FC0D4B0B4A7121084800F08CFCDD
:102E7000044B054A6821054800F086FC41701A7031
:102E8000DDE7C046009E0010CCA200101C9E001082
:102E9000849E0010B8A20010909E00109C9E00100E
:102EA00070B506000D001400002914D0002A14D0BB
:102EB000806873689847002806D0220029003000F7
:102EC000FFF79CFF280007E02A0021003000FFF7F1
:102ED00095FF200000E0100070BD0800FCE7000036
:102EE00010B50023437301338373037BC373012342
:102EF000027B9A4214D9002B0CD0027B934209D852
:102F00005A00D218033A01688C4662440133DBB29E
:102F10005370EDE70B4B0C4A68210C4800F034FC71
:102F2000002A09D0924207D8016853009A18033A40
:102F30008A180023537010BD024B034A68210348CE
:102F400000F022FC009E0010CCA200101C9E00107D
:102F500010B5017342608360FFF7C2FF10BD00002F
:102F600070B50400081E00D170BD002934D0237B49
:102F7000994231D84B005B18033B22689446634466
:102F80005A78002AF0D02DD0237B9A422AD85300B9
:102F90009B18033B21688C4663445D78002159707F
:102FA000002825D0237B984222D843001B18033BDE
:102FB00021688C4663440021597001002000FFF70E
:102FC0006FFF060029002000FFF7CAFF0200310052
:102FD0002000FFF765FFC7E7084B094A6821094849
:102FE00000F0D2FB054B064A6821064800F0CCFBF6
:102FF000024B034A6821034800F0C6FB009E001004
:10300000CCA200101C9E001070B505000C0016002C
:1030100000292FD034D0037B994231D84B005B1864
:10302000033B0268944663445A78002A2ED19A786A
:10303000002A31D11978FFF793FF0300002E0AD040
:10304000EA7B002A2ED1AA7B002A03D1EA7B002A40
:103050003BD1AC73EC73002B3DD1002C4FD02B7BBC
:103060009C424CD82B6861000C19033C1C190023AE
:10307000637070BD254B264A3821264800F084FB3A
:10308000254B264A6821264800F07EFB254B204A26
:103090003A21204800F078FB234B1D4A3B211D4874
:1030A00000F072FB002A0AD0297B8A4207D851001F
:1030B0008A18033A29688C4662445470C3E7164B59
:1030C000164A6821164800F05FFB184B104A42214F
:1030D000104800F059FB002B0BD02A7B934208D8F4
:1030E00043001B18033B2A689446634400229A70ED
:1030F000B3E7094B094A6821094800F045FB064B34
:10310000064A6821064800F03FFBC046C4A10010F3
:10311000A4A20010CCA10010009E0010CCA20010B0
:103120001C9E001020A2001048A20010609F0010FA
:1031300070B504000A00457B2900FFF765FF607346
:10314000280070BD70B50400002967D0437B8B4216
:103150000ED0002911D0037B99420ED84B005B188A
:10316000033B0268D0188378002B0CD1002056E076
:103170000121FFF7DDFF012051E0294B294A682199
:10318000294800F001FB002B20D0227B93421DD860
:103190005A00D318033B2268D2182568EB5C8B4297
:1031A0001AD0002B1BD0227B934218D85A00D31878
:1031B000033B2268D21853788B4216D0002BF0D1F3
:1031C0001A4B1B4A6B211B4800F0DEFA144B154AC0
:1031D0006821154800F0D8FA4378137007E0104BC7
:1031E000104A6821104800F0CFFA4378537000234A
:1031F0008370437001222000FFF706FF0200617B0D
:10320000814205D02000FFF74BFE6073012006E0ED
:10321000094B074A7121074800F0B6FA002070BD3B
:10322000009E0010CCA200101C9E0010A09B00105D
:103230008CA20010CCA100106CA2001070B5046B21
:10324000E30701D4200070BD02003032C0239B018F
:1032500013430A4A1A60456A826AAD01AD18AD028D
:10326000062000F0BDF9064901F054FC01002800D9
:1032700001F050FC0021FFF7C1FCE3E7010300006F
:103280004E0E000070B504000E001500FFF7D6FFCB
:1032900022002C32E16A4E40354080235B0113430B
:1032A0001D60206370BD000070B505000C00062095
:1032B00000F096F9C000210001F02CFCC60908D0EE
:1032C0000E4B9E4216D87F2318400130340046082A
:1032D00000E001246C62AE62002200212800FFF7AA
:1032E000D1FF062000F07CF98000A101891901F0CE
:1032F00011FC70BD0026024CECE7C046FEFF00004A
:10330000FFFF000010B505394901013AD200114311
:10331000002B09D002220A43012B07D000211143C0
:103320006E22FFF7AFFF10BD0022F4E70421F6E79D
:10333000002909D00A22064B9C466044434258416A
:103340004000044BC252704780225200F3E7C0464F
:103350000080FCBF3011002070B505000C00062075
:1033600000F03EF9061E27D0164B9D4226D0802243
:10337000D203154B1A60154B1A60154B9B68110050
:103380009943FAD100212800FFF7D2FF210028003D
:10339000FFF78AFF06000023012208212800FFF71B
:1033A000B1FF2A002C3280239B01134310221A60A4
:1033B000084B2B630323AB64300070BD80221204E2
:1033C000D7E7C0460080034000E0004000F0004026
:1033D00000C0004001030000F8B5DE4657464E46E7
:1033E0004546E0B505000F0092460A9A934250D335
:1033F0001A0E91461E020A9A00233000494601F037
:10340000C7FB80466C006419A400304B9C466444A2
:103410006368834200D260602B1FDBB29B46012BA6
:103420003DD9C0239B012343802212011A60AB00C7
:10343000274A9958002907D0506901F06BFB431CBB
:103440005800C0180338FDD253465A0123685A4029
:10345000E0231A4080235B0123431A605A46012A65
:1034600028D980239B012343802212011A604346FE
:103470006360424600233000494601F089FBAD00FD
:10348000134B58510120F0BCBB46B246A946A0469A
:10349000F8BD104B104A3321104800F075F9012F88
:1034A000BFD1C0239B01234303221A60A368DB071B
:1034B000FCD5C9E72168794003220A401A60A26856
:1034C0000123BB401342FAD0CBE7C0460080004046
:1034D000780E0020D8A200104CA30010ECA200101F
:1034E00030B583B00C2000F011F9FEF7DDFA0028AA
:1034F0000DD0002304E099002D4A2E488850013356
:10350000092BF8D92A4B2C4A5A6203B030BD2B4BF9
:1035100000229A6700F002F9294B01221A60274B1A
:103520005B6C012BFBD1274B03221A60234B9B6B57
:10353000012BFBD1013300930433234A012123489B
:1035400000F054F805230093214A0121214800F09E
:103550004DF8214B0093002202210420FFF73CFF8D
:103560001E4D00952B00002201210520FFF734FF9E
:10357000104C00942300002200210720FFF72CFFAD
:1035800000942300002200210820FFF725FF0A4BAA
:1035900000932300002200210920FFF71DFF009562
:1035A0002B00002200210620FFF716FFADE7C046E2
:1035B000780E0020006CDC021BB700000080004089
:1035C0003CB0004030B00040002F685900800240FD
:1035D000008C864700C00240001BB70040597307AB
:1035E0008000014BC0587047780E0020F0B5C646E9
:1035F00000B504000E0017001D00374801F08AFADC
:103600008046364BFA18364B9A4239D801003800BA
:1036100001F080FA0200103A98235B009A4235D8F4
:103620006B1E062B38D8069B013B062B34D83F096E
:10363000474537D32D04069B1A0315432368002BF7
:1036400036DB284B9C4244D080225201264B1A6024
:10365000264B1A60264B9B6811009943FAD12660CD
:10366000A060231DC02292011A4321231360236806
:10367000002BFCDAE5600823136080BCB846F0BD7F
:103680001C4B1D4A11211D4800F07EF81C4B1A4AA4
:1036900019211A4800F078F81A4B174A1C211748CC
:1036A00000F072F8184B144A2321144800F06CF80B
:1036B00022683F231340B342C3D1A3681B051B0DEF
:1036C0008342BED1E368EE22D2021340AB42B8D1AE
:1036D000D3E780229201B9E7001BB70080E84BD303
:1036E00080F8A93200C0024000E0004000F0004035
:1036F00000C000405CA300109CA40010BCA30010FC
:1037000018A4001034A4001080A4001080239B0093
:103710000343014AD362704700800540064BAA224A
:1037200012011A602F22DA60044B054A1A60024B1C
:103730005B68002BFBDA70470040024000600240EB
:1037400000B0FA0000BEFDE703000A4A1268002A32
:1037500008D0084A1068C318074A9A4206D3054A97
:1037600013607047034A05491160F2E701204042A7
:10377000F7E7C046EC0E00200000042040110020B6
:1037800010B5FFF7DFFF000010B582B00C00190084
:10379000002A0CD0084B002A0BD001920093230082
:1037A0000200064802F0F6FB0120FFF7CBFF044BB6
:1037B000F1E7034AF1E7C046A8A40010B8A400103E
:1037C000B4A4001070B52B4B2B4A1A602B4B2C4A1B
:1037D0001A602C4B9A682A4B9343FAD12A4C01E089
:1037E00008CC9847294B9C42FAD3FFF779FE234B2C
:1037F000274A1A60234B9B68DB43DB01FAD1254B38
:1038000040229A675A671A67DA66234C09E0234B0D
:10381000234A87212348FFF7B7FF2000FEF7AEFBBE
:103820000834214B9C4209D22368002BF5D0012B90
:10383000EDD12000FEF7AFFB0834F2E71B4CA16886
:103840001B4DC022280002F0FFF9A560EFF30583AD
:10385000002B00D000BEFEF761F9FEF779FBFEF702
:10386000E9FE144C01E008CC9847134B9C42FAD374
:1038700070BDC04600E00040BFCDFBFE00F0004040
:10388000FE7F3C0000C00040B00C0020C00C0020B7
:10389000FFFFFF0100F00140A80C0020E8A4001089
:1038A0007CA5001008A50010B00C002000ED00E081
:1038B00000000020C00C0020C40C00200FB400B594
:1038C00083B0084802F036FB049B002B07D005A903
:1038D0000191180002F03EFB034802F02BFB01208F
:1038E000FFF730FF68A5001078A500109A4200D2BB
:1038F00088547047704710B5002802D00B6849689B
:10390000984710BD0100002007E083001B185B00F2
:10391000501C08601078C01830380A681378303BA3
:10392000DBB2092BF1D97047F0B5DE4657464E465B
:103930004546E0B583B093461F000C9B9A460D9C0C
:103940000E9B99460F9B9B0703D0B8460F000600BD
:1039500022E00192A34688464E46B9460700B4428B
:1039600007D2551C4B4641462020B84701342A0057
:10397000F5E73D004F465C46019B9B46B1464646F7
:10398000B84637002E0007E0013C551C5346185D31
:1039900043463900B0472A00002CF5D135003E00DF
:1039A00047460F9B9B0707D4100003B0F0BCBB46F3
:1039B000B246A946A046F0BDB0464E46B9462F00D5
:1039C0005D46531BB342EFD2541C4B464146202068
:1039D000B8472200F5E7F0B5CE46474680B585B03A
:1039E000944698460C9D0D9C0EAB1B789946109AF8
:1039F000119B129EB7071CD4002B0CD0F7070AD5D9
:103A00004F46002F02D10C37374204D0013B02E071
:103A100030272F550134944201D21F2CF8D9F707D3
:103A200007D59C4205D21F2C03D830272F550134CF
:103A3000F5E7F70615D5770505D4002C03D0944299
:103A400024D09C4222D00F9A102A2BD00F9A102AF1
:103A500030D00F9A022A35D01F2C02D830222A5596
:103A600001341F2C05D84A46002A31D02D222A5570
:103A70000134039602930194009543466246FFF792
:103A800053FF05B0C0BCB946B046F0BD621E012C64
:103A900006D00F9F102F01D01400D4E7023CD2E7CC
:103AA0001400D0E7B206D1D41F2CCFD878222A55E3
:103AB0000134D1E7B206CCD51F2CCAD858222A55DA
:103AC0000134C9E71F2CC7D860322A550134C3E737
:103AD000720703D52B222A550134CAE73207C8D50D
:103AE00020222A550134C4E7F0B5DE4657464E463B
:103AF0004546E0B593B081468A46089209931CABCF
:103B000010CB1B789B461E9D219B9846002C03D111
:103B1000102342469A4390468023DB0046461E40CF
:103B200042461A4212D0002C22D000260EE030333A
:103B3000D9B2771C0AAB99552900200000F0EAFFA2
:103B4000AC4216D31F2F14D83E00040029002000D9
:103B500000F0E0FFCBB2092BE9D94246920605D529
:103B60004121C918C9B20A39C9B2E2E76121F8E7AF
:103B7000270043460693209B05931F9B04930395C0
:103B80005B46029301970AAB0093099B089A514642
:103B90004846FFF720FF13B0F0BCBB46B246A9462B
:103BA000A046F0BDF0B5DE4657464E464546E0B568
:103BB00095B0089009910A920B931E9E1F9C20AB12
:103BC0001B789B46229B9946239D269B9A46330051
:103BD000234303D1103352469A4392468023DB009D
:103BE00057461F4052461A4219D0330023432DD066
:103BF000002714E03033DAB27B1C98460CABDA5560
:103C00004A462B003000210000F0C2FFA5421FD819
:103C100019D043461F2B1BD8474606000C004A46C6
:103C20002B003000210000F0B3FFD3B2092BE1D903
:103C30005246920605D54122D218D2B20A3AD2B2E1
:103C4000DAE76122F8E7B145E3D901E000239846BD
:103C500053460693259B0593249B04934B4603935D
:103C60005B460293434601930CAB00930B9B0A9A6D
:103C700009990898FFF7AFFE15B0F0BCBB46B246F5
:103C8000A946A046F0BD0000F0B5DE4657464E46B8
:103C90004546E0B591B083468A460C9298461A9CF8
:103CA00008941B9D099522002B002000290001F09B
:103CB00002FA002800D0E5E001225242D74B200052
:103CC000290001F0F3F9002800D0DBE00122524284
:103CD000D34B2000290001F0D3F9002800D0D1E017
:103CE00000220023089E3000099D290001F0C8F938
:103CF000002800D0DDE008980999069007918023FC
:103D0000DB001E9A1A400D921E9A1A4201D1062318
:103D10001C930698079904000D000A000600024350
:103D200000D1D1E0080D4005400DBE4CA4466044D2
:103D30000A03120BBC4B13431F0001F0CFF9BB4A1F
:103D4000BB4B01F052F9BB4ABB4B01F027F9040011
:103D50000D000022B94B3000390001F016F9B84AC5
:103D6000B84B01F042F902000B002000290001F0DD
:103D700015F901F0CBF9814601F0B0F904000D000E
:103D8000B14AB24B01F031F90022B14B01F006F912
:103D900001F0BCF90600AF4AAF4B2000290001F04A
:103DA00024F904000D00300001F098F9AB4AAC4B47
:103DB00001F01BF902000B002000290001F0E5F8DA
:103DC00004000D0002000B0001F00FF90A900B91A6
:103DD000A44BF31800261F0522002B002000290009
:103DE00001F0DCF80E900F9122002B0000208021C2
:103DF000C90501F0CAF804000D0000229A4B0A9888
:103E00000B9901F0D4F80022984B01F0C7F802009A
:103E10000B000A980B9901F0CAF80022944B01F0AC
:103E2000BDF802000B000A980B9901F0C0F80200DF
:103E30000B002000290001F0B1F802000B000E98E1
:103E40000F9901F0B4F80022774B01F0A7F8320087
:103E50003B0001F0CAF806000F0004000D00069AAE
:103E6000079B01F023F9002830D001235B429C46D8
:103E7000E14400227D4B3000390001F098F8040045
:103E80000D0023E01E9B04931D9B03931C9B029338
:103E9000089A099B0092019343460C9A5146584652
:103EA00000F0FCF811B0F0BCBB46B246A946A046F3
:103EB000F0BD0023002406930794069680231B067A
:103EC0009C46654407951AE7002399464B466333A1
:103ED000C62B1ED804261E9B1B0526D52B0023436C
:103EE0000FD0644A644B0698079901F0D7F8002870
:103EF00079D00022614B0698079901F0C1F800289B
:103F000071D01C9B4B4506DD4A46981A431E1C93F4
:103F100003E00526DFE700231C938023DB001E9AC5
:103F20001A431E920026002399461D9B9E4264D28E
:103F30009F1B02231E9A1A400A921E9A134202D015
:103F4000002E00D000274B46002B07D022002B006C
:103F50000698079901F02BF806900791002200239C
:103F60000898099901F08CF8002848D1444B1E9A12
:103F70001340049303971C9B0293069B079C00939A
:103F8000019443460C9A5146584600F087F8002E9B
:103F900000D187E71E9B9B063DD54525441C434623
:103FA000020051462800D8474B46DA179B18534069
:103FB00005220592013E0496002203920A320292E3
:103FC0004A46D00F0190009343462200514658467E
:103FD000FFF78AFD0A9B002B00D163E702005F46D2
:103FE0000C9E1D9D54E01C9B002B9ED00D9B002B16
:103FF0009BD01C9B013B1C9397E7002799E7069CED
:10400000079D2200290080200006844661440B00A1
:1040100006920793AAE76525C0E7C046FFFFEF7F3A
:10402000FFFFEFFF01FCFFFF0000F03FFB799F5017
:104030001344D33FB3C8608B288AC63F0000F83FC3
:1040400061436F63A787D23F71A379094F930A40F9
:104050000000E03F1655B5BBB16B0240EF39FAFEE8
:10406000422EE63FFF03000000002C4000002440E9
:10407000000018402D431CEBE2361A3F80842E418D
:10408000FFF7FFFF541C434651462020B84722004B
:10409000931BAB42F6D3100004E7C046F0B5DE46F2
:1040A00057464E464546E0B595B006900791934673
:1040B0009946209F1E9A1F9B1000190000F0FBFFDD
:1040C000002831D101225242BF4B1E981F9900F0A7
:1040D000D7FF002837D101225242BC4B1E981F99AE
:1040E00000F0E4FF00283DD10022B94B1E981F9933
:1040F00000F0DCFF002850D10022B64B1E981F991B
:1041000000F0BEFF002848D1002200231E981F990E
:1041100000F0B6FF002850D100239846229B5B0593
:1041200000D4B6E0002458E0229B0393219B029325
:1041300003230193A84B00934B465A4607990698D0
:10414000FFF7F2FB0EE1229B0393219B02930423D2
:104150000193A24B00934B465A4607990698FFF7E6
:10416000E3FBFFE00423229A1A4022990B4210D06D
:104170009B4B002A0FD0042222990391219902918E
:10418000019200934B465A4607990698FFF7CCFBDD
:10419000E8E0944BEDE70322EEE7229B0493219B9A
:1041A000039302971E9B1F9C009301944B465A4613
:1041B00007990698FFF768FDD4E01E9A1F9B002020
:1041C000002100F0E2FE1E901F9101239846A5E712
:1041D0000CAB30221A55013F01341F2C01D8092F96
:1041E000F6D81E981F9900F091FF050000F076FFA9
:1041F00002000B001E981F9900F0C7FEFA007A4BD0
:104200009B181A685B680A920B9300F0EEFE089008
:10421000099100F09FFF060000F05CFF02000B0018
:104220000898099900F0B1FE0890099100226F4B9F
:1042300000F03CFF00282ED00136300000F04AFF8D
:1042400002000B000A980B9900F020FF002801D013
:1042500001350026002F2CD1280000F03FFF02007E
:104260000B001E981F9900F090FE06000F00002220
:104270005E4B00F005FF002846D100225B4B30006A
:10428000390000F013FF00283ED1EB073CD5013583
:104290003AE0062746E70022544B0898099900F0B7
:1042A000EFFE0028D6D1002E01D0F307D2D501367B
:1042B000D0E7AA461F2C11D8013F0A21300000F098
:1042C00029FC651C30310CAB19550A21300000F077
:1042D00021FC092E0ED906002C00EBE755461F2CB9
:1042E0000CD87B1E002F09D00CAA302111551F00BD
:1042F0000134F4E72B0055461C00F0E71F2C03D8CF
:104300000CAB2E221A5501341F2C10D80A2128007C
:1043100000F0D8FB661C30310CAB19550A2128007F
:1043200000F0D0FB051E01D03400EDE7340003237C
:10433000229A1340012B1CD01F2C06D84346002B79
:1043400032D00CAB2D221A550134229B0393219BB2
:10435000029301940CAB00934B465A46079906987A
:10436000FFF7E2FA15B0F0BCBB46B246A946A0463C
:10437000F0BD219B002B13D04346002B02D10C3300
:1043800013420FD0219B013B2193190003E00CAB9A
:1043900030221A5501348C42CED21F2CF7D9CBE7EC
:1043A0002199F8E72199F6E7229B5B0704D50CAB2E
:1043B0002B221A550134C8E7229B1B07C5D50CAB2D
:1043C00020221A550134C0E7FFFFEFFFFFFFEF7F08
:1043D00065CDCD4165CDCDC198A500109CA500103F
:1043E00090A500108CA5001088A700100000E03FE9
:1043F000F0B5DE4657464E464546E0B593B0824698
:104400008B4690461193002900D1EBE200275546D8
:10441000119B1878002800D1E7E2252809D07C1CE0
:1044200043463A005946A847119B01331193270090
:10443000EEE7013311930024119A11780B00203B11
:10444000D8B2102803D88300D048C3589F460B0029
:10445000303BDBB2092B2CD92A292FD000230A9319
:10446000119B1A782E2A39D000239A46119A137874
:10447000683BD9B2122976D88B00C549CB589F46E4
:1044800001231C4301321192D6E702231C4301325F
:104490001192D1E704231C4301321192CCE7082387
:1044A0001C4301321192C7E710231C4301321192C1
:1044B000C2E711A8FFF726FA0A90D1E71C9B1A1D44
:1044C0001C921868002804DB0A90119B0133119399
:1044D000C6E702231C4343420A93F6E78022D20038
:1044E00014435A1C11925A781300303BDBB2092B4B
:1044F00004D92A2A07D000239A46B7E711A8FFF764
:1045000001FA8246B2E71C9B1A1D1C92186800280B
:1045100004DB8246119B01331193A7E70020F8E7E3
:1045200080235B002343511C119152786C2A01D0E7
:104530001C0018E0C0239B001C430131119112E0C4
:1045400080232343511C11915278682A01D01C000A
:1045500009E0C0231C430131119104E080235B007A
:104560001C4301321192119B18780300253BDAB2EB
:10457000532A00D92CE29300864AD3589F468023C1
:104580009B001C4301321192EDE780235B001C432A
:1045900001321192E7E7782809D0582838D06F28DF
:1045A00038D0622838D010239C430A2600E0102619
:1045B000582833D0692803D0642801D00C229443B2
:1045C000630501D50122944369282AD0642828D0A4
:1045D000A30500D59FE0E30500D5B8E0630600D44D
:1045E000CAE01C9A111D1C911168FF220A40059413
:1045F0000A9B04935346039302960023019300926F
:1046000043463A0059462800FFF76EFA070027E0B4
:104610001026CDE70826CBE70226C9E7202214435F
:10462000C8E7A30520D4E30550D4630666D51C9AD9
:10463000111D1C911168FF220A40D317D11859404F
:1046400005940A9B0493534603930296D20F01925A
:10465000009143463A0059462800FFF745FA070003
:10466000119B01331193D3E61C9BDA1D07218A436A
:10467000110008311C91116853689C46DB170C939C
:104680000D930C9A0D9B100048400E9062465340CB
:104690000F930E980F990C9A0D9B801A99410E90CA
:1046A0000F9108940A9B07935346069304960023A0
:1046B00005936346DA0F02920090019143463A0057
:1046C00059462800FFF76EFA0700C9E71C9A111D2A
:1046D0001C911268D317D118594005940A9B049372
:1046E000534603930296D20F0192009143463A003B
:1046F00059462800FFF7F8F90700B1E7230605D56A
:104700001C9A111D1C910023D25E96E71C9A111D64
:104710001C91126891E71C9BDA1D07218A43110046
:1047200008311C9108940A9B0793534606930496FC
:104730000023059302931368546800930194434641
:104740003A0059462800FFF72DFA070088E71C9A1F
:10475000111D1C9105940A9B0493534603930296E2
:10476000002301931368009343463A0059462800FA
:10477000FFF7BAF9070073E723060DD51C9A111D40
:104780001C9112681204120C31E7C046A4A5001057
:10479000E8A5001034A600101C9A111D1C91126887
:1047A00025E746281AD01C9B0733072293431A009B
:1047B00008321C9204940A9A0392524602925C6850
:1047C0001B680093019443463A0059462800FFF7BE
:1047D00065FC0700119B0133119319E620231C434C
:1047E000E1E7672801D0472802D180231B011C4341
:1047F000452801D0472801D120231C431C9B0733A7
:10480000072293431A0008321C9204940A9A0392D6
:10481000524602925C681B680093019443463A003A
:1048200059462800FFF730FA0700119B0133119316
:10483000EEE502231A002240924623421FD00124B3
:104840001C9B1A1D1C927A1C9146187843463A000C
:104850005946A8475346002B16D1119B013311939B
:104860004F46D5E5561C434659462020B8472300FD
:1048700032005C1C9D42F5D83D001700E0E70123A3
:104880003A002F000A9DF4E74A46A9460A9D06E031
:10489000571C434659462020C84734003A00661C3E
:1048A000A542F5D84D469146D7E71C9B1A1D1C9290
:1048B0001B6899465346002B00D1013B4E4601E050
:1048C000013613003278002A02D05A1E002BF7D18D
:1048D0004B46F21A10928023DB0026001E401C4239
:1048E00003D0524501D95346109302231A002240A7
:1048F0000B92234205D03A0037004C46A946554654
:1049000020E03A00109B5F46B3462E0006E0551C9F
:10491000434639002020B04723002A005C1C0A9936
:104920009942F4D835005E46BB46109437004C4699
:10493000A946554606E01D000134561C434659461B
:10494000C84732002078002804D0002FF4D06B1E16
:10495000002DF0D117004D460B9B002B03D1119B6E
:104960000133119354E50A9F109B06E0561C434601
:1049700059462020A847230032005C1C9F42F5D8EE
:104980001700ECE721231C431C9B1A1D1C921B687B
:104990000093059408230493534603931023029332
:1049A0000023019343463A0059462800FFF79CF83C
:1049B0000700119B013311932AE57C1C43463A0002
:1049C00059462520A847119B0133119327001FE565
:1049D0007C1C43463A005946A847119B013311936A
:1049E000270015E50A4B9A4610E5AA46474502D32B
:1049F00043465A1E00E03A00434659460020D0473D
:104A0000380013B0F0BCBB46B246A946A046F0BD84
:104A1000F53800100CB410B584B00A0006AC08CC10
:104A20000394009401000448FFF7E2FC04B010BCBA
:104A300008BC02B01847C046ED38001000B585B07C
:104A4000029003910121009313004A4202A90248F7
:104A5000FFF7CEFC05B000BDF73800100148042177
:104A6000014B1847C00200208D4A001010B501000C
:104A700018231B8814221088984710BD10B5010018
:104A800018231B8816221088984710BDF0B5C6461B
:104A900000B507000E0000250123984600E001350F
:104AA000B5420AD2AC003C192068FFF7DFFF206056
:104AB0000028F4D100239846F1E7404680BCB84670
:104AC000F0BD0000124A936F9B0815D29066D16624
:104AD000002905D0FFE7FFE7FFE7516F106F704730
:104AE00004B580210906C2175140002800D0C843F0
:104AF00004F016FB002104BDF0B5146E556E576F1F
:104B0000166FFFF7E3FF1466556657671667F0BD2B
:104B1000000000D0114A936F9B0813D210665166B3
:104B2000002905D0FFE7FFE7FFE7516F106F7047DF
:104B300004B5002801D00020C04304F0F1FA0021A0
:104B400004BDC046F0B5146E556E576F166FFFF773
:104B5000E5FF1466556657671667F0BD000000D084
:104B600094464A4A926F9208624601D228E0C046B3
:104B7000F0B5464E346E756E776F366F00F020F8E4
:104B80009446424A14665566576716676246F0BDFA
:104B900094463E4A926F9208624601D254E0C04663
:104BA000F0B53A4E346E756E776F366F00F04CF894
:104BB0009446364A14665566576716676246F0BDD6
:104BC000002B24DB11D000293EDA00B5C943404256
:104BD00000D1013100F038F8C943404200D1013121
:104BE000DB43524200D1013300BD002AEBD1002843
:104BF00001D1002905D00020C90FC90701D1C04348
:104C0000410800B504F084FA0022002300BD00B57D
:104C100000290ADBDB43524200D1013300F014F8D3
:104C2000C943404200D1013100BDC943404200D1D7
:104C30000131DB43524200D1013300F005F8DB4380
:104C4000524200D1013300BD002923D1002B18D1DD
:104C5000002A0CD0BC460D4F38667A66002100232E
:104C6000FFE7FFE7FFE77A6F386F67467047002876
:104C700001D00748010000B504F04AFA00220023E1
:104C800000BD02000B00002000217047000000D092
:104C9000FFFFFFFF002B00D0BFE0130C28D1002A3C
:104CA000E7D080B4114F39667A66FFE7FFE730B48A
:104CB000040C7B6F396F1B0423433B667A66FFE766
:104CC000FFE7FFE7C04684B27B6F3D6F1B042343C1
:104CD0003B667A66FFE7FFE7C04600232C042D0CF5
:104CE0007A6F386F00196941B0BC7047000000D07E
:104CF000F0B594460025140E01D112020835140FA8
:104D000001D112010435940F01D192000235D40F64
:104D100001D152000135D40B0134254F7C66254C5E
:104D20003C660E0C93B2FFE7FFE7FFE73C6F66437C
:104D3000360C7703BE467343DF0B5B04C01AB941E0
:104D4000130C7343DB18C91ACE086643360CB644FD
:104D500093B273431F0F1B01C01AB941130C734365
:104D60001F0B1B05C01AB941860D8F023E436643D7
:104D7000360C092D24DB520A7243801A7703460A47
:104D80006643360C16235B1BDE40DF40BF196446CA
:104D90006643821B7046043506330100D940A840A3
:104DA000C01900D30131A24206D20023F0BD000099
:104DB000000000D0FFFFFFFF121B0130F3D3F1E72B
:104DC00009277F1BFE406446A2B27243801A00D2BC
:104DD0000139220C7243130C1204821A99410B0000
:104DE0007046043513370100F940A840801900D3FC
:104DF0000131002B02D1A2420AD2F0BD013000D312
:104E00000131121BFAD2013BF8D1A24200D2F0BD0F
:104E1000013000D30131121BF7E7F0B51C0C00D0B4
:104E200080E00CB400251C0A04D11B02160E33438B
:104E3000120208351C0B04D11B01160F334312015B
:104E400004359C0B04D19B00960F3343920002352E
:104E5000DC0B02D192185B4101351C0097186441AC
:104E60000134464F7C66464C3C660E0CFFE7FFE77C
:104E7000FFE7C0463C6F6643360C7703BE4697B2E9
:104E80007743C01B00D20139C01B00D201399FB249
:104E90007743C91BC91B170C77437E04FF0B801B8C
:104EA000B941CE086643360C0C2D33DBB644120BE9
:104EB0001F053A431B0B97B27743C01B00D2013941
:104EC0009FB27743C91B170C77433E043F0C801BEE
:104ED000B941860D8F023E43664329277F1BFE4062
:104EE0000C3D7746AF40BF1930BCA2B2ABB27243A3
:104EF0007343801A9941220C7243130C1204801AD6
:104F0000994102000B000137001BA941F9D2781E1C
:104F10000021F0BD0C277F1BFE4077467F0BAF4082
:104F2000FF19E0E700245D1C07D0144F7D66396649
:104F3000FFE7FFE7FFE7FFE73C6F95B29EB26543EF
:104F40006643401BB141150C1E0C65436643360495
:104F50002F0C3E432D04401BB141994204D2020064
:104F60000B0020000021F0BD01D19042F7D3801A40
:104F7000994101349942F2D3F6E70000000000D0D5
:104F8000FFFFFFFF48404140484018B41B4B5B689F
:104F9000FC46019308BD04DFF752001018B4174B0C
:104FA0001B68FC46019308BD00DF015300109446C6
:104FB000134A926F920809D2624618B40F4BDB680D
:104FC000FC46019308BD0CDFB95500100C4AF0B542
:104FD000146E556E576F166F6246FFF7EEFF084A64
:104FE0001466556657671667F0BD18B4034B9B6887
:104FF000FC46019308BD08DF5D540010180F002027
:10500000000000D0FFB550404240504059404B4056
:10501000594000E0FFB5154F4C00640D03D0BC4271
:1050200004D10C0314D80020090D09055C00640D9F
:1050300003D0BC4204D11C030AD800221B0D1B055F
:1050400001264B4009D44B4003D58B4200D182420C
:10505000FFBD9942FCD19042FFBD0B43DB180343D7
:105060001343F5D0C9434918FFBD0000FF070000F6
:1050700000B5FFF7CFFF01D0002000BD012000BD2B
:1050800000B5FFF7C7FF804100BDC04600B5FFF780
:10509000C1FF01D9002000BD012000BD00B5FFF710
:1050A000B1FF01D9002000BD012000BD00B5FFF710
:1050B000A9FF804100BD012040054A00121804D814
:1050C0005A00121801D800207047012070470020B4
:1050D000704700000021002805D17047C1174840E3
:1050E000401AFAD0C90713B5064B1B6898470CBC89
:1050F000441CA2401005120B0349091B0905194362
:10510000114310BD181000201F04000010B54C0002
:10511000620D8023D218DB00D21A5B057E2A10DDD7
:105120009E3A13DACC170903490819435242D14079
:10513000640001341532202A05DAD0400843604368
:1051400010BD002010BD0846604310BDC80FC01838
:10515000013810BD18B4044B5B6AFC46019308BDCE
:1051600024DF695700100000180F002018B4044B0A
:10517000DB6DFC46019308BD5CDF75580010000034
:10518000180F0020C94211D300B549004908002278
:1051900000F018F8002904D4002240428A41114648
:1051A00000BD80210906002000BD000018B4044B9A
:1051B000DB6EFC46019308BD6CDF775700100000E2
:1051C000180F002018B4044B9B6FFC46019308BDD8
:1051D00078DF935700100000180F002018B4044B1C
:1051E000DB6FFC46019308BD7CDF01580010000016
:1051F000180F002070B513231C78012C14D0012C3B
:1052000014DC022C02DC1F4A1F4B9A641F48FFF774
:105210002DFC1F4B186070BD99001A481A4A88501F
:1052200001331F2BF8D9EAE70023FAE71948FFF703
:1052300025FC05001848FFF721FC023803789B0085
:105240007F2B19DD802229000F4800F0FDFC022C85
:10525000D7D1124B1A88B5231B029A4209D1104BA1
:105260001A88104B9A4204D10F4B1A880F4B9A425E
:10527000C7D00020FEF722FB0D4B0E4A32210E480C
:10528000FEF782FABD520010180F00204C330000C8
:10529000181000205344000053460000543800000A
:1052A000D8380000494600009C38000059460000EC
:1052B000D8A7001090A800102CA8001007B56046D1
:1052C000002800D100BE01880A0A0230DF2AFAD184
:1052D000C9B2820804D3028840880004104300E069
:1052E0000068024A5050039007BD0000180F0020CC
:1052F0000FB403BC0CBCF0B50124E407634000E02C
:10530000F0B50C0DCF0F661E3605891B640503D35F
:10531000C943404200D30131640D03D0661CF60A34
:1053200007D0E41B00207F00791C89078912803C8C
:1053300024031D0DDF0F6E1E36059B1B6D0503D369
:10534000DB43524200D301336D0D03D06E1CF60ACD
:1053500007D0ED1B00227F007B1C9B079B12803D2A
:105360002D032F1B661B58D4A446202E46DA203767
:105370001400BC401D00BD40F24033412A43801858
:105380005941CB0F05D0C943C0430022644250416C
:10539000514162464D0D28D10D0D07D100281FD077
:1053A000241940414941013A0D0DF9D0640006D35A
:1053B000013000D30131002C01D140084000013AF6
:1053C0000BD4941CE40A04D112051144DB071944E0
:1053D000F0BDD907204B194300E0D9070020F0BDEC
:1053E0000029DDD1002CDBD1F0BD0132C607400819
:1053F000CD0728434908002EE1D0D9E73C2E29DA11
:10540000203E40371400BC4000D00124F240144339
:105410001A00BB401C43D317ACE7AC46202F08DA78
:1054200020360400B4400D00B540F840394128430F
:10543000A5E73C2F0CDA203F40360400B44000D0F2
:105440000124F84004430800B1400C43C117EAE7C7
:1054500010001900002494E70000F07FF0B50C0D57
:10546000661E3605891BE60A6405640D02D0651CBC
:10547000ED0A04D0002001210905803C2403A44644
:105480001C0D671E3F05DB1BE70A6405640D02D097
:10549000651CED0A04D0002201231B05803C240377
:1054A0007740644497B484B296B27443070C7E4349
:1054B000150C6F4380B26843361802D301200004F4
:1054C0003F183004350C00197D41844688B29AB2E9
:1054D00050430C0C62431F0C7C438EB27E439219E6
:1054E00002D301263604A4191604170C3618674196
:1054F00001BC81B29AB25143040C62431B0C5C4361
:1055000080B25843121802D301200004241810045A
:10551000130C401863412D185E410020474106BC22
:1055200088B293B258430C0C6343120C544389B2B3
:1055300051435B1802D301210904641819041A0CA1
:10554000091862416D1856410020474118BCF90204
:10555000720D1143F0026A0D1043ED020A0D03D1E2
:105560006D1940414941013B124E9B1B7600B342ED
:105570000ED26D0007D301300026714166463543D7
:1055800001D1400840001B05C918E4072144F0BDC3
:105590000BDA013306D1013004D101314F0D01D0B6
:1055A0004908F2E7E1070020F0BD0136310500208F
:1055B000EBE70000FF030000F0B51C0D671E3F0580
:1055C000DB1BE70A6405640D02D0661CF60A04D0F2
:1055D000002201231B05803C2403D0252D06002634
:1055E000F6432E661E096E66CE0FF619B4464900C4
:1055F0004F0D02D07E1CF60A03D000200021403F50
:105600003F033E1BB600B444013F7F05C91B490858
:105610002E6F013676089C02950D25437543ED13D8
:105620007543AD1301356D10F603761B0CB4CC0237
:10563000450D2C43A2B2B3B25A43270C7B43350C21
:105640006F43A4B26C431B1902D3012424043F19F5
:105650001C041D0CA4187D4124196D41009A91B2BF
:10566000ACB26143170C7C432B0C5F4392B25A439C
:10567000A41802D301221204BF182204230C5218CA
:105680007B41019C6C431B19520ED9010A43440112
:10569000A01A81B2B2B2514303145A43360C734379
:1056A00087B27743D617D21900277E4136049B195B
:1056B0001704160C7F185E417316ED18F3010026CF
:1056C00080337541A90F06D16400690AE8055B0AB9
:1056D000184309D22FE00422944480337541A90A6B
:1056E000A8059B0A184326D3404149412404009A47
:1056F000019B0D005543641B4343E41A95B286B2E7
:105700007543170C7E43030C5F4392B25A43B6189D
:1057100002D301221204BF183204330C52197B4108
:1057200052429C41002C02D40022013051414008D9
:10573000CA071043490802B06246D7079210084BC7
:10574000D218084B9A4203D212058918C919F0BD24
:105750000020002A01DC3900F0BD01331905F5E70E
:10576000FD030000FE070000002200B5203200F01B
:1057700010F8080000BD002200B500F00CF8CA17B0
:105780009A4200D100BDD8430121C907414000BD64
:1057900000220B150AD410B5944600F0A7F8141493
:1057A000013400DA0021CB17144C204700200021DF
:1057B00070476244343A0CD40C2A07DA0400914052
:1057C000904052422032D440214310BDD843D943A7
:1057D00010BD203207D40C46944052422032114171
:1057E000D040204310BD0800C917203203D45242D4
:1057F0002032104110BD1800190010BDB357001021
:105800004A00520D144BD21A13DDFF2A1EDAD205BC
:10581000CB0FDB071A43C300400F0903490A0843B3
:1058200010435B0001D301D0013070474308FBD225
:10583000704702D0C80FC00770470A031213013225
:10584000F8D1420F072AF5D1012200E0FF22C80F4C
:1058500000028018C00570478003000000210A0084
:10586000002104E000210A00C11704E00022002307
:1058700006E0C0460022CB1758405940C01A994153
:1058800030B5184CA21A002903D1010010D0002015
:10589000203A4C1512D104D2013A001849414C0D5E
:1058A000FAD3114CA24204D212058918DB07C91899
:1058B00030BDD243520D00200021F5E703D4013A58
:1058C00000184941FBD50B324405C00A4D05284359
:1058D000C90A640003D0002460416141E1E7E0D3DC
:1058E0004408F8E732040000FE0700000A0DCC0F60
:1058F000531E1B05C91A520503D3C943404200D3A6
:105900000131520D03D0531CDB0A07D0121B0020BB
:105910006400611C89078912803A1203014BD21A74
:1059200070470000FF03000051434343C9188C46F1
:10593000110C83B24B4310B4040C614392B280B299
:10594000504362431C041B0C001910BC5941130442
:10595000120CC0185141614470470000484041405A
:10596000484000239C46114B5B68184700239C4627
:105970000E4B1B6818470E4A936F9B0804D20023F6
:105980009C460A4BDB681847F0B5146E556E576F8E
:10599000166FFFF7F4FF064A1466556657671667D9
:1059A000F0BD00239C46014B9B6818471C1000204B
:1059B000000000D007B548404140484001E0C046E3
:1059C00007B54200120E03D0FF2A03D1420218D8B5
:1059D000C00DC0054A00120E03D0FF2A03D14A02AF
:1059E0000FD8C90DC9050122414005D4414001D558
:1059F000814207BD884207BD0143491801D0C04319
:105A0000001807BD00B5FFF7DBFF01D9002000BD7E
:105A1000012000BD01231B064200D21804D84A0011
:105A2000D21801D80020704701207047C10FC90764
:105A300000D54042002817D0F44603B40B4B1B6836
:105A4000984706BC81409E384042803107D20B0601
:105A500007D04900490AC005104308436047013098
:105A6000F8E7490A8902F5E770470000181000209E
:105A700041000A0E80231B067E2A0BDD9E3A0BDABC
:105A8000C1174002400818435242D040490001313A
:105A90004843704700207047C00FC0180138704756
:105AA000C0420DD300B540004008002100F012F8BC
:105AB000002801D4404200BD8020000600BD000047
:105AC000034BDB69FC4618471CDF155C0010000027
:105AD0001C10002000239C46014B5B6A1847000005
